:100000000C945A000C9475000C9475000C947500B7
:100010000C9475000C9475000C9475000C9475008C
:100020000C9475000C9475000C9475000C9475007C
:100030000C9475000C9475000C9475000C9475006C
:100040000C94B0010C9475000C9475000C94750020
:100050000C9475000C9475000C9475000C9475004C
:100060000C9475000C94750000000007000201005C
:100070000003040600000000000000000102040864
:100080001020408001020408102001020408102002
:10009000040404040404040402020202020203032E
:1000A000030303030000232629000025282B00005A
:1000B00024272A0011241FBECFEFD4E0DEBFCDBF1E
:1000C00011E0A0E0B1E0E4E6F6E002C005900D9298
:1000D000A030B107D9F711E0A0E0B1E001C01D9256
:1000E000AA30B107E1F70C94A5010C940000CF935E
:1000F000DF9360E089E00E945E0260E08AE00E9497
:100100005E0289E00E947C029093050180930401C5
:100110008AE00E947C029093030180930201C2E076
:10012000D0E061E08C2F0E945E022196C930D1059B
:10013000C1F7DF91CF910895009709F45FC0813036
:10014000910509F451C08230910599F460E086E090
:100150000E94C50260E084E00E94C50260E083E086
:100160000E94C50260E088E00E94C50260E087E06E
:100170005BC08330910559F460E086E00E94C502BF
:1001800060E084E00E94C50260E083E045C0843006
:10019000910539F460E086E00E94C50260E085E0E8
:1001A00021C08530910559F460E086E00E94C502C7
:1001B00060E085E00E94C50260E084E02DC08630EA
:1001C000910559F460E086E00E94C50260E085E098
:1001D0000E94C50260E084E01BC08730910539F4BD
:1001E00060E084E00E94C50260E083E019C08830CE
:1001F0009105E9F460E086E00E94C50260E085E0D8
:100200000E94C50260E084E00E94C50260E083E0D5
:100210000E94C50260E088E00E94C50260E087E0BD
:100220000E94C50260E082E00E94C502089509971D
:10023000C1F460E086E00E94C50260E085E00E94B3
:10024000C50260E084E00E94C50260E083E00E9495
:10025000C50260E087E00E94C50260E082E00E9483
:10026000C5020895CF93DF93C2E0D0E061E08C2F08
:100270000E94C5022196C930D105C1F7DF91CF9107
:100280000895DF92EF92FF920F931F93CF93DF9326
:100290008C01D62E7A010E9432018091000190914A
:1002A00001010E949C00802F0E947C02EC016AE008
:1002B00070E080E090E00E94ED01802F0E947C02BF
:1002C000C817D90709F5CE15DF05F1F0CD2BE1F4FC
:1002D000809100019091010121E0D21651F4893002
:1002E000910514F401960CC01092010110920001C6
:1002F0000BC01816190614F4019702C089E090E0AB
:100300009093010180930001DF91CF911F910F9194
:10031000FF90EF90DF900895409104015091050106
:1003200061E089E090E00E9441014091020150911A
:10033000030160E08AE090E00E94410168EC70E017
:1003400080E090E00E94ED010895CFEFD4E0DEBFA1
:10035000CDBF0E941C020E9477000E948C01FDCF3D
:100360001F920F920FB60F9211248F939F93AF930A
:10037000BF938091060190910701A0910801B0916F
:1003800009010196A11DB11D8093060190930701FB
:10039000A0930801B0930901BF91AF919F918F91F4
:1003A0000F900FBE0F901F901895609106017091ED
:1003B0000701809108019091090127E0660F771FDE
:1003C000881F991F2A95D1F72DE730E040E050E0D3
:1003D0000E941003CA01B9010895AF92BF92CF9253
:1003E000DF92EF92FF920F931F935B016C010E94CB
:1003F000D5017B018C010E94D5016E197F09800B0C
:10040000910B6A157B058C059D05A8F31F910F9133
:10041000FF90EF90DF90CF90BF90AF90089501973D
:1004200051F0880F991F880F991F02972FB7F894E2
:100430000197F1F72FBF089578941092060110925A
:100440000701109208011092090184B5826084BDF1
:1004500084B5816084BD85B5826085BD85B58160C8
:1004600085BDEEE6F0E0808181608083E1E8F0E028
:10047000808182608083808181608083E0E8F0E019
:10048000808181608083E1EBF0E080818460808303
:10049000E0EBF0E0808181608083EAE7F0E080813A
:1004A000846080838081826080838081816080839A
:1004B0008081806880831092C1000895282F33279F
:1004C000C90184589F4FFC01949120573F4FF90177
:1004D0008491882381F0E82FFF27E255FF4FE491B4
:1004E000FF27662329F480819095892380830895CE
:1004F0008081892B80830895482F5527CA01885908
:100500009F4FFC012491CA0184589F4FFC01949194
:1005100040575F4FFA0134913323A1F1222331F187
:10052000233021F4809180008F7705C0243031F48E
:10053000809180008F7D8093800018C0213019F455
:1005400084B58F7704C0223021F484B58F7D84BDBB
:100550000DC0263021F48091B0008F7705C0273080
:1005600029F48091B0008F7D8093B000E32FFF27A6
:10057000EC55FF4FE491FF278081892319F081E03A
:1005800090E0089580E090E00895482F5527CA0133
:1005900088599F4FFC012491CA0184589F4FFC0148
:1005A000949140575F4FFA0134913323C1F12223D4
:1005B00031F1233021F4809180008F7705C0243001
:1005C00031F4809180008F7D8093800018C02130AD
:1005D00019F484B58F7704C0223021F484B58F7D5F
:1005E00084BD0DC0263021F48091B0008F7705C006
:1005F000273029F48091B0008F7D8093B000E32FE5
:10060000FF27E755FF4FE491FF27662329F48081F8
:1006100090958923808308958081892B8083089514
:10062000A1E21A2EAA1BBB1BFD010DC0AA1FBB1FF6
:10063000EE1FFF1FA217B307E407F50720F0A21B68
:10064000B30BE40BF50B661F771F881F991F1A94D5
:1006500069F760957095809590959B01AC01BD01FF
:04066000CF01089529
:00000001FF
