:100000000C945B000C9481000C9481000C94810092
:100010000C9481000C9481000C9481000C9481005C
:100020000C9481000C9481000C9481000C9481004C
:100030000C9481000C9481000C9481000C9481003C
:100040000C946D020C9481000C9447040C94810074
:100050000C9481000C9481000C9481000C9481001C
:100060000C9481000C9481006C02000000070002D7
:10007000010000030406000000000000000001026F
:100080000408102040800102040810200102040826
:100090001020040404040404040402020202020204
:1000A0000303030303030000232629000025282B54
:1000B000000024272A0011241FBECFEFD4E0DEBFAA
:1000C000CDBF11E0A0E0B1E0E6E8FBE002C00590A2
:1000D0000D92A230B107D9F711E0A2E0B1E001C062
:1000E0001D92A339B107E1F710E0CAE6D0E004C0E1
:1000F0002297FE010E94BF05C836D107C9F70C94AC
:1001000091010C940000CF93DF9360E08091000197
:100110000E941B0340E855E260E070E08AE091E055
:100120000E949E01809100010E9439039093050175
:1001300080930401C2E0D0E061E08C2F0E941B0399
:100140002196C930D105C1F7DF91CF91089500976D
:1001500009F45FC08130910509F451C082309105E6
:1001600099F460E086E00E94820360E084E00E94EF
:10017000820360E083E00E94820360E088E00E94E6
:10018000820360E087E05BC08330910559F460E052
:1001900086E00E94820360E084E00E94820360E0C7
:1001A00083E045C08430910539F460E086E00E9428
:1001B000820360E085E021C08530910559F460E05C
:1001C00086E00E94820360E085E00E94820360E096
:1001D00084E02DC08630910559F460E086E00E94ED
:1001E000820360E085E00E94820360E084E01BC03F
:1001F0008730910539F460E084E00E94820360E07A
:1002000083E019C088309105E9F460E086E00E943F
:10021000820360E085E00E94820360E084E00E9447
:10022000820360E083E00E94820360E088E00E9435
:10023000820360E087E00E94820360E082E00E9427
:10024000820308950997C1F460E086E00E9482036A
:1002500060E085E00E94820360E084E00E94820307
:1002600060E083E00E94820360E087E00E948203F6
:1002700060E082E00E9482030895CF93DF93C2E0A2
:10028000D0E061E08C2F0E9482032196C930D10515
:10029000C1F7DF91CF9108950E943D018091020145
:1002A000909103010E94A700809100010E943903F0
:1002B00090930901809308016AE070E080E090E08B
:1002C0000E94AA02809100010E94390390930701C5
:1002D0008093060120910801309109012817390700
:1002E000F9F4809104019091050128173907A1F0D4
:1002F0002115310589F48091020190910301893023
:10030000910534F40196909303018093020104C097
:100310001092030110920201309305012093040111
:100320000895CFEFD4E0DEBFCDBF0E94D9020E9476
:1003300083000E944C01FDCF08950895CB01BA01BE
:100340000E94CD0308950E940E04992708950E94EB
:100350001F0408950E943E040895862F0E9485047C
:100360000895CB010E948C040895862F0E94850475
:1003700008950F931F938C016DE00E94AD016AE018
:10038000C8010E94AD011F910F9108950F931F9313
:100390008C010E94AD01C8010E94B9011F910F910B
:1003A00008950F931F938C010E94B101C8010E9410
:1003B000B9011F910F9108950F931F938C010E9413
:1003C000B501C8010E94B9011F910F910895CB0199
:1003D000BA013327442755270E94990408952AE03B
:1003E0000E94E70108950F931F938C010E94EF0173
:1003F000C8010E94B9011F910F910895AB016627B2
:1004000077270E94EF0108950F931F938C010E949C
:10041000FE01C8010E94B9011F910F910895EF924A
:10042000FF920F931F93CF93DF93EC017A018B011F
:1004300077FF0BC06DE20E94AD0110950095F0941E
:10044000E094E11CF11C011D111D2AE0B801A70177
:10045000CE010E94E701DF91CF911F910F91FF9094
:10046000EF9008950F931F938C010E940F02C80113
:100470000E94B9011F910F9108952115310521F4B2
:10048000642F0E94AD0108952A30310519F40E94AD
:100490000F0208950E94E70108950F931F938C01A6
:1004A0000E943D02C8010E94B9011F910F91089559
:1004B000AB01662757FD6095762F0E940F020895C5
:1004C0000F931F938C010E945802C8010E94B9012A
:1004D0001F910F910895089508951F920F920FB6DE
:1004E0000F9211248F939F93AF93BF9380910F012D
:1004F00090911001A0911101B09112010196A11DDE
:10050000B11D80930F0190931001A0931101B0933E
:100510001201BF91AF919F918F910F900FBE0F90DD
:100520001F90189560910F01709110018091110139
:100530009091120127E0660F771F881F991F2A9557
:10054000D1F72DE730E040E050E00E946C05CA0191
:10055000B9010895AF92BF92CF92DF92EF92FF92CE
:100560000F931F935B016C010E9492027B018C012F
:100570000E9492026E197F09800B910B6A157B0510
:100580008C059D05A8F31F910F91FF90EF90DF90D0
:10059000CF90BF90AF900895019751F0880F991FA9
:1005A000880F991F02972FB7F8940197F1F72FBF83
:1005B0000895789410920F01109210011092110179
:1005C0001092120184B5826084BD84B5816084BDBF
:1005D00085B5826085BD85B5816085BDEEE6F0E0BC
:1005E000808181608083E1E8F0E0808182608083A7
:1005F000808181608083E0E8F0E080818160808399
:10060000E1EBF0E0808184608083E0EBF0E08081CA
:1006100081608083EAE7F0E080818460808380816C
:100620008260808380818160808380818068808314
:100630001092C1000895282F3327C90182589F4F77
:10064000FC0194912E563F4FF9018491882381F04B
:10065000E82FFF27E055FF4FE491FF27662329F499
:10066000808190958923808308958081892B808360
:100670000895482F5527CA0186599F4FFC012491A0
:10068000CA0182589F4FFC0194914E565F4FFA0168
:1006900034913323A1F1222331F1233021F48091CD
:1006A00080008F7705C0243031F4809180008F7DE9
:1006B0008093800018C0213019F484B58F7704C06E
:1006C000223021F484B58F7D84BD0DC0263021F405
:1006D0008091B0008F7705C0273029F48091B00059
:1006E0008F7D8093B000E32FFF27EA55FF4FE49101
:1006F000FF278081892319F081E090E0089580E050
:1007000090E00895482F5527CA0186599F4FFC0154
:100710002491CA0182589F4FFC0194914E565F4F1D
:10072000FA0134913323C1F1222331F1233021F432
:10073000809180008F7705C0243031F48091800053
:100740008F7D8093800018C0213019F484B58F7795
:1007500004C0223021F484B58F7D84BD0DC02630C5
:1007600021F48091B0008F7705C0273029F4809163
:10077000B0008F7D8093B000E32FFF27E555FF4F3A
:10078000E491FF27662329F4808190958923808353
:1007900008958081892B80830895EF92FF920F93B3
:1007A0001F937B018C0122E030E040E050E00E948A
:1007B0008E05205C3D4B404F5F4FCA01B901A80137
:1007C00097010E948E052150304040405040BB2789
:1007D00057FDBA95A52F942F832F2F5F3F4F4F4F73
:1007E0005F4F8093C50021502093C400E1ECF0E0FE
:1007F000808180618083808188608083808180683F
:1008000080831F910F91FF90EF900895982F809112
:10081000C00085FFFCCF9093C600089580910D0124
:1008200090910E0120910B0130910C01821B930BD2
:1008300080589F4F60E870E00E94590508954091EC
:100840000B0150910C0180910D0190910E018417C4
:10085000950719F48FEF9FEF0895FA01ED5EFE4FB3
:100860002081CA01019660E870E00E9459059093CA
:100870000C0180930B01822F9927089580910B0121
:1008800090910C0190930E0180930D0108951F9299
:100890000F920FB60F9211242F933F934F935F93B4
:1008A0006F937F938F939F93AF93BF93EF93FF9338
:1008B0004091C600E0910D01F0910E01CF0101962B
:1008C00060E870E00E9459059C0180910B019091B5
:1008D0000C012817390739F0ED5EFE4F4083309345
:1008E0000E0120930D01FF91EF91BF91AF919F9168
:1008F0008F917F916F915F914F913F912F910F90C9
:100900000FBE0F901F90189508950E940604089539
:100910008AE00E9485040895CF93DF93EC0103C021
:1009200021960E94850488818823D1F7DF91CF9199
:1009300008952F923F924F925F926F927F928F9283
:100940009F92AF92BF92CF92DF92EF92FF920F935E
:100950001F93CF93DF93CDB7DEB7A0970FB6F89470
:10096000DEBF0FBECDBF6B017C0119012A016115ED
:1009700071058105910521F480E30E9485044BC037
:100980006624772443015E010894A11CB11C8501F3
:10099000060D171DC701B601A20191010E946C0549
:1009A000F80160830894611C711C811C911CC701B3
:1009B000B601A20191010E946C0569017A0121151D
:1009C00031054105510519F773010894E108F10853
:1009D000EA0CFB1CAA24BB24650111C0F70180812D
:1009E0008A3010F4805D01C0895C0E9485040894FF
:1009F000A108B108C108D1080894E108F1088827C6
:100A00009927DC0186199709A809B909A816B9061A
:100A1000CA06DB0619F7A0960FB6F894DEBF0FBE24
:100A2000CDBFDF91CF911F910F91FF90EF90DF909D
:100A3000CF90BF90AF909F908F907F906F905F907E
:100A40004F903F902F900895EF92FF920F931F9336
:100A50007B018C0197FF0BC08DE20E9485041095ED
:100A60000095F094E094E11CF11C011D111D2AE099
:100A700030E040E050E0C801B7010E9499041F91A6
:100A80000F91FF90EF90089520E130E040E050E0BA
:100A90000E949904089528E030E040E050E00E9470
:100AA0009904089522E030E040E050E00E9499046B
:100AB000089597FB092E07260AD077FD04D049D068
:100AC00006D000201AF4709561957F4F0895F6F7CF
:100AD000909581959F4F0895A1E21A2EAA1BBB1BEA
:100AE000FD010DC0AA1FBB1FEE1FFF1FA217B307FA
:100AF000E407F50720F0A21BB30BE40BF50B661F10
:100B0000771F881F991F1A9469F7609570958095D3
:100B100090959B01AC01BD01CF01089597FB092E73
:100B200005260ED057FD04D0D7DF0AD0001C38F4BC
:100B300050954095309521953F4F4F4F5F4F089509
:100B4000F6F790958095709561957F4F8F4F9F4FE9
:100B50000895AA1BBB1B51E107C0AA1FBB1FA61704
:100B6000B70710F0A61BB70B881F991F5A95A9F756
:100B700080959095BC01CD010895EE0FFF1F059063
:060B8000F491E02D099440
:020B86000A0063
:00000001FF
