:100000000C945A000C9475000C9475000C947500B7
:100010000C9475000C9475000C9475000C9475008C
:100020000C9475000C9475000C9475000C9475007C
:100030000C9475000C9475000C9475000C9475006C
:100040000C94BF010C9475000C9475000C94750011
:100050000C9475000C9475000C9475000C9475004C
:100060000C9475000C94750000000007000201005C
:100070000003040600000000000000000102040864
:100080001020408001020408102001020408102002
:10009000040404040404040402020202020203032E
:1000A000030303030000232629000025282B00005A
:1000B00024272A0011241FBECFEFD4E0DEBFCDBF1E
:1000C00011E0A0E0B1E0E2E8F6E002C005900D9298
:1000D000A030B107D9F711E0A0E0B1E001C01D9256
:1000E000A630B107E1F70C94B4010C940000CF9353
:1000F000DF93C1E0D0E061E08C2F0E946D02219679
:10010000C830D105C1F7DF91CF91089590930101D7
:1001100080930001892BC1F460E085E00E94D40245
:1001200060E084E00E94D40260E083E00E94D40298
:1001300060E087E00E94D40260E081E00E94D40287
:1001400060E082E00E94D402809100019091010160
:10015000019741F460E083E00E94D40260E082E015
:100160000E94D40280910001909101010297A1F4B4
:1001700060E086E00E94D40260E084E00E94D40245
:1001800060E083E00E94D40260E081E00E94D4023B
:1001900060E087E00E94D40280910001909101010B
:1001A0000397A1F460E086E00E94D40260E084E05E
:1001B0000E94D40260E083E00E94D40260E082E00A
:1001C0000E94D40260E081E00E94D402809100018C
:1001D00090910101049781F460E086E00E94D402CE
:1001E00060E085E00E94D40260E083E00E94D402D7
:1001F00060E082E00E94D4028091000190910101B0
:100200000597A1F460E086E00E94D40260E085E0FA
:100210000E94D40260E084E00E94D40260E082E0A8
:100220000E94D40260E081E00E94D402809100012B
:10023000909101010697C1F460E086E00E94D4022B
:1002400060E085E00E94D40260E084E00E94D40275
:1002500060E082E00E94D40260E081E00E94D4026B
:1002600060E087E00E94D40280910001909101013A
:10027000079761F460E084E00E94D40260E083E0CC
:100280000E94D40260E082E00E94D40280910001CA
:10029000909101010897E1F460E086E00E94D402A9
:1002A00060E085E00E94D40260E084E00E94D40215
:1002B00060E083E00E94D40260E082E00E94D40209
:1002C00060E081E00E94D40260E087E00E94D402F6
:1002D00080910001909101010997C1F460E086E0EE
:1002E0000E94D40260E085E00E94D40260E084E0D5
:1002F0000E94D40260E083E00E94D40260E082E0C9
:100300000E94D40260E081E00E94D4020895CF935D
:10031000DF93C1E0D0E061E08C2F0E94D4022196EF
:10032000C830D105C1F7DF91CF9108950E948701B0
:1003300080910001909101010E94860068EE73E0B7
:1003400080E090E00E94FC01809100019091010109
:10035000019690930101809300010A9724F0109276
:100360000101109200010895CFEFD4E0DEBFCDBFB0
:100370000E942B020E9477000E949601FDCF1F92DF
:100380000F920FB60F9211248F939F93AF93BF9349
:100390008091020190910301A0910401B0910501A7
:1003A0000196A11DB11D8093020190930301A093BA
:1003B0000401B0930501BF91AF919F918F910F9070
:1003C0000FBE0F901F90189560910201709103016C
:1003D000809104019091050127E0660F771F881F27
:1003E000991F2A95D1F72DE730E040E050E00E94B8
:1003F0001F03CA01B9010895AF92BF92CF92DF9255
:10040000EF92FF920F931F935B016C010E94E40136
:100410007B018C010E94E4016E197F09800B910B16
:100420006A157B058C059D05A8F31F910F91FF9020
:10043000EF90DF90CF90BF90AF900895019751F06B
:10044000880F991F880F991F02972FB7F89401976B
:10045000F1F72FBF089578941092020110920301D2
:10046000109204011092050184B5826084BD84B5A8
:10047000816084BD85B5826085BD85B5816085BD9F
:10048000EEE6F0E0808181608083E1E8F0E0808149
:1004900082608083808181608083E0E8F0E08081F9
:1004A00081608083E1EBF0E0808184608083E0EB19
:1004B000F0E0808181608083EAE7F0E08081846001
:1004C000808380818260808380818160808380815D
:1004D000806880831092C1000895282F3327C901B6
:1004E00084589F4FFC01949120573F4FF90184910C
:1004F000882381F0E82FFF27E255FF4FE491FF2783
:10050000662329F4808190958923808308958081D2
:10051000892B80830895482F5527CA0188599F4FFA
:10052000FC012491CA0184589F4FFC0194914057CB
:100530005F4FFA0134913323A1F1222331F12330AB
:1005400021F4809180008F7705C0243031F48091B0
:1005500080008F7D8093800018C0213019F484B50D
:100560008F7704C0223021F484B58F7D84BD0DC007
:10057000263021F48091B0008F7705C0273029F410
:100580008091B0008F7D8093B000E32FFF27EC5562
:10059000FF4FE491FF278081892319F081E090E0EB
:1005A000089580E090E00895482F5527CA018859A2
:1005B0009F4FFC012491CA0184589F4FFC019491E4
:1005C00040575F4FFA0134913323C1F1222331F1B7
:1005D000233021F4809180008F7705C0243031F4DE
:1005E000809180008F7D8093800018C0213019F4A5
:1005F00084B58F7704C0223021F484B58F7D84BD0B
:100600000DC0263021F48091B0008F7705C02730CF
:1006100029F48091B0008F7D8093B000E32FFF27F5
:10062000E755FF4FE491FF27662329F480819095D9
:100630008923808308958081892B80830895A1E296
:100640001A2EAA1BBB1BFD010DC0AA1FBB1FEE1F4C
:10065000FF1FA217B307E407F50720F0A21BB30B97
:10066000E40BF50B661F771F881F991F1A9469F713
:1006700060957095809590959B01AC01BD01CF016F
:020680000895DB
:00000001FF
